:020000040800F2
:1000000000000520D92000081D2000081F2000083E
:1000100021200008232000082520000800000000FF
:1000200000000000000000000000000041A00008E7
:100030002720000800000000E1A0000845A10008FA
:100040002921000829210008292100082921000868
:100050002921000829210008292100082921000858
:100060002921000829210008292100082921000848
:100070002921000829210008292100082921000838
:100080002921000829210008292100082921000828
:100090002921000829210008292100082921000818
:1000A0002921000829210008292100082921000808
:1000B00029210008292000082921000829210008F9
:1000C00029210008292100082921000829210008E8
:1000D00029210008292100082921000829210008D8
:1000E00029210008292100082921000829210008C8
:1000F00029210008292100082921000829210008B8
:1001000029210008292100082921000829210008A7
:10011000292100082921000835200008292100088C
:100120004120000829210008292100082921000870
:100130002921000829210008292100082921000877
:100140002921000829210008292100082921000867
:100150002921000829210008292100082921000857
:100160002921000829210008292100082921000847
:100170002921000829210008292100080000000089
:100180002921000829210008292100082921000827
:100190002921000829210008292100082921000817
:1001A0004D200008292100085920000829210008B5
:1001B00029210008292100082921000829210008F7
:0801C000292100082921000893
:1001D00010B5054C237833B9044B13B10448AFF381
:1001E00000800123237010BD980300200000000050
:1001F0006C75050808B5034B1BB103490348AFF301
:10020000008008BD000000009C0300206C750508FC
:1002100010F8012B11F8013B012A28BF9A42F7D0B0
:10022000D01A70470000000000000000000000002D
:1002300001F0FF01102A2BDB10F0070F08D010F897
:10024000013B013A8B422DD010F0070F42B3F6D19B
:10025000F0B441EA012141EA014122F007047FF0B4
:1002600000070023F0E80256083C85EA010586EA0B
:10027000010685FA47F5A3FA87F586FA47F6A5FA47
:1002800087F68EB9EED1F0BC01F0FF0102F0070253
:1002900032B110F8013B013A83EA010313B1F8D1FE
:1002A0000020704701387047002D06BF35460338DF
:1002B000073815F0010F07D1013015F4807F02BF18
:1002C000013015F4C03F0130F0BC0138704700BF69
:1002D000034613F8012B002AFBD1181A0138704786
:1002E00081F0004102E000BF83F0004330B54FEAE7
:1002F00041044FEA430594EA050F08BF90EA020F54
:100300001FBF54EA000C55EA020C7FEA645C7FEAE6
:10031000655C00F0E2804FEA5454D4EB5555B8BF09
:100320006D420CDD2C4480EA020281EA030382EA7A
:10033000000083EA010180EA020281EA0303362D0C
:1003400088BF30BD11F0004F4FEA01314FF4801CDF
:100350004CEA113102D0404261EB410113F0004FF1
:100360004FEA03334CEA133302D0524263EB4303A8
:1003700094EA050F00F0A780A4F10104D5F1200E46
:100380000DDB02FA0EFC22FA05F2801841F10001A1
:1003900003FA0EF2801843FA05F359410EE0A5F175
:1003A00020050EF1200E012A03FA0EFC28BF4CF0A6
:1003B000020C43FA05F3C01851EBE37101F000455C
:1003C00007D54FF0000EDCF1000C7EEB00006EEB69
:1003D0000101B1F5801F1BD3B1F5001F0CD34908F3
:1003E0005FEA30004FEA3C0C04F101044FEA44524A
:1003F00012F5800F80F09A80BCF1004F08BF5FEAD1
:10040000500C50F1000041EB045141EA050130BDB0
:100410005FEA4C0C404141EB0101013C28BFB1F5C2
:10042000801FE9D291F0000F04BF01460020B1FA0D
:1004300081F308BF2033A3F10B03B3F120020CDAE0
:100440000C3208DD02F1140CC2F10C0201FA0CF0BE
:1004500021FA02F10CE002F11402D8BFC2F1200C23
:1004600001FA02F120FA0CFCDCBF41EA0C019040D9
:10047000E41AA2BF01EB0451294330BD6FEA040422
:100480001F3C1CDA0C340EDC04F11404C4F120020D
:1004900020FA04F001FA02F340EA030021FA04F31F
:1004A00045EA030130BDC4F10C04C4F1200220FA76
:1004B00002F001FA04F340EA0300294630BD21FAB4
:1004C00004F0294630BD94F0000F83F4801306BF7A
:1004D00081F480110134013D4EE77FEA645C18BF6E
:1004E0007FEA655C29D094EA050F08BF90EA020F05
:1004F00005D054EA000C04BF1946104630BD91EAFD
:10050000030F1EBF0021002030BD5FEA545C05D1FF
:100510004000494128BF41F0004130BD14F580043E
:100520003CBF01F5801130BD01F0004545F0FE41B2
:1005300041F470014FF0000030BD7FEA645C1ABFE7
:10054000194610467FEA655C1CBF0B46024650EA1E
:10055000013406BF52EA033591EA030F41F400214A
:1005600030BD00BF90F0000F04BF0021704730B5D0
:100570004FF4806404F132044FF000054FF00001A5
:1005800050E700BF90F0000F04BF0021704730B566
:100590004FF4806404F1320410F0004548BF40423B
:1005A0004FF000013EE700BF42004FEAE2014FEA90
:1005B00031014FEA02701FBF12F07F4393F07F4F6B
:1005C00081F06051704732F07F4208BF704793F06E
:1005D0007F4F04BF41F40021704730B54FF4607481
:1005E00001F0004521F000411CE700BF50EA010284
:1005F00008BF704730B54FF000050AE050EA01022D
:1006000008BF704730B511F0004502D5404261EB9C
:1006100041014FF4806404F132045FEA915C3FF4DD
:10062000D8AE4FF003025FEADC0C18BF03325FEA7A
:10063000DC0C18BF033202EBDC02C2F1200300FA2B
:1006400003FC20FA02F001FA03FE40EA0E0021FA50
:1006500002F11444BDE600BF70B54FF0FF0C4CF43E
:10066000E06C1CEA11541DBF1CEA135594EA0C0FF0
:1006700095EA0C0F00F0DEF82C4481EA030621EA2B
:100680004C5123EA4C5350EA013518BF52EA033566
:1006900041F4801143F4801338D0A0FB02CE4FF018
:1006A0000005E1FB02E506F00042E0FB03E54FF048
:1006B0000006E1FB03569CF0000F18BF4EF0010E40
:1006C000A4F1FF04B6F5007F64F5407404D25FEA3C
:1006D0004E0E6D4146EB060642EAC62141EA5551EF
:1006E0004FEAC52040EA5E504FEACE2EB4F1FD0C31
:1006F00088BFBCF5E06F1ED8BEF1004F08BF5FEAAF
:10070000500E50F1000041EB045170BD06F0004660
:1007100046EA010140EA020081EA0301B4EB5C040D
:10072000C2BFD4EB0C0541EA045170BD41F4801105
:100730004FF0000E013C00F3AB8014F1360FDEBF2A
:10074000002001F0004170BDC4F10004203C35DA06
:100750000C341BDC04F11404C4F1200500FA05F389
:1007600020FA04F001FA05F240EA020001F000422A
:1007700021F0004110EBD37021FA04F642EB0601A0
:100780005EEA430E08BF20EAD37070BDC4F10C04CA
:10079000C4F1200500FA04F320FA05F001FA04F28E
:1007A00040EA020001F0004110EBD37041F100017A
:1007B0005EEA430E08BF20EAD37070BDC4F1200585
:1007C00000FA05F24EEA020E20FA04F301FA05F2ED
:1007D00043EA020321FA04F001F0004121FA04F295
:1007E00020EA020000EBD3705EEA430E08BF20EA65
:1007F000D37070BD94F0000F0FD101F0004640009F
:1008000041EB010111F4801F08BF013CF7D041EA20
:10081000060195F0000F18BF704703F00046520024
:1008200043EB030313F4801F08BF013DF7D043EAF5
:100830000603704794EA0C0F0CEA135518BF95EAAB
:100840000C0F0CD050EA410618BF52EA4306D1D132
:1008500081EA030101F000414FF0000070BD50EA51
:10086000410606BF1046194652EA430619D094EADB
:100870000C0F02D150EA013613D195EA0C0F05D1C5
:1008800052EA03361CBF104619460AD181EA030119
:1008900001F0004141F0FE4141F470014FF00000D1
:1008A00070BD41F0FE4141F4780170BD70B54FF06C
:1008B000FF0C4CF4E06C1CEA11541DBF1CEA1355EC
:1008C00094EA0C0F95EA0C0F00F0A7F8A4EB0504CE
:1008D00081EA030E52EA03354FEA013100F08880C5
:1008E0004FEA03334FF0805545EA131343EA12638E
:1008F0004FEA022245EA111545EA10654FEA002643
:100900000EF000419D4208BF964244F1FD0404F5FB
:10091000407402D25B084FEA3202B61A65EB030557
:100920005B084FEA32024FF480104FF4002CB6EB14
:10093000020E75EB030E22BFB61A754640EA0C0094
:100940005B084FEA3202B6EB020E75EB030E22BFD4
:10095000B61A754640EA5C005B084FEA3202B6EB15
:10096000020E75EB030E22BFB61A754640EA9C00D4
:100970005B084FEA3202B6EB020E75EB030E22BFA4
:10098000B61A754640EADC0055EA060E18D04FEA62
:10099000051545EA16754FEA06164FEAC30343EA02
:1009A00052734FEAC2025FEA1C1CC0D111F4801FCF
:1009B0000BD141EA00014FF000004FF0004CB6E7C8
:1009C00011F4801F04BF01430020B4F1FD0C88BF67
:1009D000BCF5E06F3FF6AFAEB5EB030C04BFB6EB72
:1009E000020C5FEA500C50F1000041EB045170BD65
:1009F0000EF0004E4EEA113114EB5C04C2BFD4EB92
:100A00000C0541EA045170BD41F480114FF0000E15
:100A1000013C90E645EA060E8DE60CEA135594EA91
:100A20000C0F08BF95EA0C0F3FF43BAF94EA0C0F94
:100A30000AD150EA01347FF434AF95EA0C0F7FF409
:100A400025AF104619462CE795EA0C0F06D152EA5D
:100A500003353FF4FDAE1046194622E750EA410641
:100A600018BF52EA43067FF4C5AE50EA41047FF452
:100A70000DAF52EA43057FF4EBAE12E74FF0FF3CB7
:100A800006E000BF4FF0010C02E000BF4FF0010C88
:100A90004DF804CD4FEA410C7FEA6C5C4FEA430C01
:100AA00018BF7FEA6C5C1BD001B050EA410C0CBF50
:100AB00052EA430C91EA030F02BF90EA020F0020B2
:100AC000704710F1000F91EA030F58BF994208BF19
:100AD00090422CBFD8176FEAE37040F001007047D6
:100AE0004FEA410C7FEA6C5C02D150EA013C07D12D
:100AF0004FEA430C7FEA6C5CD6D152EA033CD3D078
:100B00005DF8040B704700BF8446104662468C4671
:100B10001946634600E000BF01B5FFF7B7FF0028A4
:100B200048BF10F1000F01BD4DF808EDFFF7F4FFCD
:100B30000CBF012000205DF808FB00BF4DF808ED58
:100B4000FFF7EAFF34BF012000205DF808FB00BF7B
:100B50004DF808EDFFF7E0FF94BF012000205DF89D
:100B600008FB00BF4DF808EDFFF7CEFF94BF012052
:100B700000205DF808FB00BF4DF808EDFFF7C4FF4B
:100B800034BF012000205DF808FB00BF4FEA410C94
:100B90007FEA6C5C02D150EA013C0AD14FEA430C77
:100BA0007FEA6C5C02D152EA033C02D14FF00000B4
:100BB00070474FF0010070474FEA410212F50012F2
:100BC00015D211D56FF47873B3EB625212D94FEA94
:100BD000C12343F0004343EA505311F0004F23FA7E
:100BE00002F018BF404270474FF00000704750EAD3
:100BF000013005D111F0004008BF6FF00040704790
:100C00004FF00000704700BF4A0011D212F50012E9
:100C100011D20DD56FF47873B3EB62520ED44FEA54
:100C2000C12343F0004343EA505323FA02F07047D4
:100C30004FF00000704750EA013002D14FF0FF3012
:100C400070474FF0000070474FEA4102B2F1E043B5
:100C500024BFB3F5001CDCF1FE5C0DD901F0004CA3
:100C60004FEAC0024CEA5070B2F1004F40EB8300F3
:100C700008BF20F00100704711F0804F21D113F11F
:100C80003872BCBF01F00040704741F480114FEA58
:100C90005252C2F11802C2F1200C10FA0CF320FAE1
:100CA00002F018BF40F001004FEAC1234FEAD323FE
:100CB00003FA0CFC40EA0C0023FA02F34FEA430368
:100CC000CCE77FEA625307D150EA01331EBF4FF0F1
:100CD000FE4040F44000704701F0004040F0FE400C
:100CE00040F40000704700BF7BB972B90029BEBF55
:100CF00000204FF0004106E008BF00281CBF6FF045
:100D000000414FF0FF3000F0F1B9ADF1080C6DE992
:100D100004CE002909DB002B1ADB00F083F8DDF894
:100D200004E0DDE9022304B07047404261EB410179
:100D3000002B1BDB00F076F8DDF804E0DDE9022390
:100D400004B0404261EB4101524263EB4303704700
:100D5000524263EB430300F065F8DDF804E0DDE99F
:100D6000022304B0404261EB41017047524263EB01
:100D7000430300F057F8DDF804E0DDE9022304B096
:100D8000524263EB4303704753B94AB9002908BF85
:100D900000281CBF4FF0FF314FF0FF3000F0A6B924
:100DA000ADF1080C6DE904CE00F03CF8DDF804E08C
:100DB000DDE9022304B0704738B500220023044661
:100DC0000D46FFF7BBFE28B920462946BDE838404E
:100DD00000F00AB8204605F1004100F005F8404255
:100DE00061EB410138BD00BFD0B50C4B0022064677
:100DF0000F46FFF731FCFFF707FF0446FFF7B2FB92
:100E0000074B0022FFF728FC02460B4630463946C6
:100E1000FFF76AFAFFF7F8FE2146D0BD0000F03D6B
:100E20000000F0412DE9F047089E0D4604460F46AC
:100E3000002B4AD18A42944665D9B2FA82F343B173
:100E400002FA03FCC3F120029F4020FA02F217438A
:100E50009C404FEA1C4E1FFA8CF5B7FBFEF1220CAA
:100E60000EFB117742EA074201FB05F090420AD9D6
:100E70001CEB020201F1FF3780F01C81904240F22E
:100E8000198102396244121AA4B2B2FBFEF00EFBC1
:100E9000102244EA024400FB05F5A5420AD91CEBE6
:100EA000040400F1FF3280F00781A54240F2048182
:100EB0006444023840EA0140641B00211EB1DC405A
:100EC0000023C6E90043BDE8F0878B4208D9002E15
:100ED00000F0ED800021C6E900050846BDE8F08776
:100EE000B3FA83F1002949D1AB4202D3824200F226
:100EF000F880841A65EB030201201746002EE2D029
:100F0000C6E90047DFE702B9FFDEB2FA82F3002B41
:100F100040F090808A1A4FEA1C471FFA8CFE01218C
:100F2000B2FBF7F507FB1520220C42EA00420EFB4C
:100F300005F0904208D91CEB020205F1FF3802D2FD
:100F4000904200F2CB804546121AA4B2B2FBF7F0F1
:100F500007FB102244EA02440EFB00FEA64508D916
:100F60001CEB040400F1FF3202D2A64500F2BB8064
:100F70001046A4EB0E0440EA05409FE7C1F12007AC
:100F80008B4022FA07FC4CEA030C05FA01F420FA24
:100F900007F3FD404FEA1C492343B5FBF9F81FFA5C
:100FA0008CFE09FB18551C0C44EA054408FB0EF5A1
:100FB000A54202FA01F200FA01F00BD91CEB04047D
:100FC00008F1FF3A80F08880A54240F28580A8F1C0
:100FD00002086444641B9DB2B4FBF9F309FB13449B
:100FE00045EA044403FB0EFEA64508D91CEB0404A5
:100FF00003F1FF356CD2A6456AD9023B644443EA4B
:101000000843A3FB0295A4EB0E04AC42C846AE46CF
:1010100056D353D056B1B0EB080264EB0E0404FA79
:1010200007F7CA40CC401743C6E9007418460021B0
:10103000BDE8F087C3F1200102FA03FC20FA01F2B7
:1010400025FA01F19D402A434FEA1C471FFA8CFE06
:10105000B1FBF7F007FB1015110C41EA054100FB4D
:101060000EF58D4204FA03F408D91CEB010100F1DE
:10107000FF382FD28D422DD902386144491B92B2DC
:10108000B1FBF7F507FB151142EA014205FB0EF132
:10109000914208D91CEB020205F1FF3816D29142A9
:1010A00014D9023D6244521A45EA004138E73146FC
:1010B000304608E73946E6E61046FBE64845A9D241
:1010C000B9EB020865EB0C0E013BA3E74546EAE7E6
:1010D0002B4694E74046D1E7D0467BE7023D624489
:1010E00032E708460AE76444023842E7704700BF27
:1010F000014900200AF0CCB9D525000808B56420C4
:1011000008F054FCFBE70000114A38B5114D147883
:101110002B788CB1D3B94FF496720F490F4805F074
:101120008DF90F4807F0B8FF01222A7008210D48F9
:10113000BDE8384006F0ACB843B1084805F018FAED
:10114000074807F0E7FF22462C70EFE738BD00BFE5
:10115000F4060020CC03002018070020D403002050
:101160005C0600200020024008B5FFF7CDFF0120FB
:1011700008F01CFCF9E70000014B186808F05EBDA0
:10118000C803002010B594B01022002102240AA840
:1011900050F072F81422002103A850F06DF81D4B96
:1011A000192108A81A6C42F080521A641B6C03F0D3
:1011B00080530193019B184B1A6842F440421A6015
:1011C00001221B6803F440430293029B4FF48033D7
:1011D000CDE908234FF48003CDE90E434FF4D873D3
:1011E000CDE91244CDE9101307F0DCF806F07EFDDE
:1011F0000F2300200721CDE903344FF4A053CDE99C
:1012000005034FF4805303A8079307F0B3FA14B013
:1012100010BD00BF00380240007000402DE980483A
:10122000A9B01022002101251BA84FF0104A50F050
:1012300023F8002405F02EFBC74B1BA8ADF86C501B
:101240001E94CDE91CA305F043FB17231BA88DF8C2
:101250006D508DF874308DF87A5005F039FB04200C
:1012600005F026FBBFF34F8FBFF36F8FBB4AC2F869
:101270005042BFF34F8FBFF36F8F536943F4003376
:101280005361BFF34F8FBFF36F8FC2F88440BFF33A
:101290004F8FD2F8803043F6E074C3F3C900C3F334
:1012A0004E335B0103EA0406014646EA81750139C3
:1012B000C2F86052F9D2203B13F1200FF2D1BFF3F4
:1012C0004F8F536943F480335361BFF34F8FBFF3A4
:1012D0006F8FA34E04F0D6FFFFF754FF14220021B6
:1012E0001BA84FF0C9FF336B0022102143F01003FD
:1012F0009C480024012533631027336B4FF003080B
:101300004FF040094FF0040B03F010034FF0070AB1
:101310000293029B336B43F002033363336B03F09E
:1013200002030393039B336B43F001033363336B7B
:1013300003F001030493049B336B43F040033363D6
:10134000336B03F040030593059B336B43F4007349
:101350003363336B03F400730693069B336B43F0E4
:1013600008033363336B03F008030793079B336B66
:1013700043F480633363336B03F480630893089B07
:10138000336B43F480733363336B03F480730993DB
:10139000099B336B43F020033363336B03F020036B
:1013A0000A930A9B336B43F080033363336B03F080
:1013B00080030B930B9B336B43F004033363336B5A
:1013C00003F004030C930C9B05F062FF002208213C
:1013D000654805F05DFF01220821644805F058FFCB
:1013E00001224FF48051604805F052FF0022C021D5
:1013F0005F4805F04DFF002240215E4805F048FFA0
:101400001BA95848CDE91D48CDE91B7505F0B8FD6D
:1014100041F208031BA95448CDE91B35CDE91D4411
:1014200005F0AEFD08231BA95048CDE91B35CDE9D9
:101430001D4405F0A5FDC0221BA94D48CDE91B2583
:10144000CDE91D4805F09CFD1BA94A48CDE91B9537
:10145000CDE91D4805F094FD326B0521382042F49A
:1014600080023263326B444E02F480020192019A90
:10147000224605F0BDF9382005F0ECF93F4A304628
:10148000C6E90A44C6E90C44C6E90024C6E9024498
:1014900005F076FC29463046394E05F029FD394ADB
:1014A0004FF48053C6F814904FF002091BA9304640
:1014B000B460B462CDF88490C6E900244FF4C072E1
:1014C000C6E906244FF40062CDE91F89C6E9082366
:1014D000C6E903B7CDE91B9ACDE91DBA07F0A0FC18
:1014E00029494FF6FF7230460094C1E90057C1E91F
:1014F000025407F0B5FC284604F0E8FE22494FF6F6
:10150000FF723046C1E90097C1E9025407F0A8FC18
:1015100008231D494FF6FF723046C1E90234C1E984
:10152000008707F09DFC4FF40C721749304600927B
:10153000009A8D60CA604FF6FF72C1E900B707F0EC
:101540008FFC40F22B713046104E07F0A8FC43F29E
:10155000D2014FF020421BE01B00000300ED00E031
:1015600000380240000402400020024000280240EF
:1015700000080240001802404004002000B0024071
:1015800028060020400100A0B4030020E004002051
:101590006420116004F09AFEB44BB54A30463462C0
:1015A000C6E90032C6E90245C6E90444C6E9064474
:1015B00005F096FF2146304606F0B4F92146304644
:1015C000AC4E06F0D5F9342221461BA84FF054FE4C
:1015D000A94A2821352040F2152C40F2352EB48638
:1015E000346186F83640C6E900240922C6E90512AE
:1015F0000B22C6E9070240F21B123046C6E909C2B7
:1016000040F21D12C6E90244C6E90BE206F058FAA0
:10161000FF204FF480634FF4F0714FF488721B94F5
:10162000ADF89C4026928DF89E40CDE9200405201F
:10163000CDE922304FF04040CDE91E29CDE924010B
:10164000224630468D4ECDE91C141BA906F003FB43
:101650008B488C4A18210462C0E900254FF4A0622F
:10166000C0E902B7C0E90412C0E9064406F058FC1C
:1016700004F086FC04F0CAFB5C2005F0F9F800F0E9
:1016800029FD21463A461BA84FF0F6FD7E484FF44F
:1016900080324FF0805CC6F81C80B4603561B46164
:1016A00086F82040F46086F830507461C6E9000284
:1016B0004FF010623046C6E90A2C04F019FE1BA94F
:1016C0003046CDF874A0CDE91B4504F0D3FF0823C4
:1016D0001BA93046CDE91B3904F0CCFF1BA93046CD
:1016E0006A4EDFF8F091CDE91BA804F0C3FF68480B
:1016F000684B4FF08008848003600562C0E90544B0
:1017000005F012F93A46214610A84FF0B5FD1C220B
:10171000214614A80F94CDE90D444FF0ADFD2C22C5
:1017200021461BA84FF0A8FDDFF8ACE140F60F639F
:101730003046B4607461C6F81880C6E900E331230E
:10174000C6E9033407F01AFE4FF4805310A930465F
:10175000109307F0E7FE304607F040FE20230DA966
:1017600030460F94CDE90D3407F076FF224614A9D8
:1017700030461A94CDE91444CDE91644CDE9184415
:1017800007F094FE4FF400531BA930461F94229497
:101790002594414ECDE920344FF00073CDE91B4430
:1017A000CDE92334CDE91D4407F0A2FF3A46214696
:1017B00014A84FF061FD1C2221461BA81294CDE90C
:1017C00010444FF059FD42F62F233046B460C6F85E
:1017D0001880C6E9009340F2E733C6E9033407F006
:1017E000CDFD4FF4805314A93046149307F09AFEB0
:1017F000304607F0F3FD10A930461094129407F01C
:101800002BFF22461BA930461D941F94CDE91B4493
:1018100007F04CFE00F08AFC00F087FC08F038F876
:101820001E4A2146284608F079F91D4B1D4A2146DB
:1018300018601D4808F066F81C4B1D4A21461860C8
:101840001C4808F05FF81C4B1C4A214618601C48D5
:1018500008F058F81B4B1C4A214618601B4808F03A
:1018600051F81B4B186008F02DF8FEE7005C0040B3
:10187000684740203405002000680140D403002060
:10188000DC050020001000A0002201405C060020C2
:101890001C04002000300240A806002060760508E5
:1018A000C803002070760508FD100008D003002052
:1018B0003C7605083B210008C4030020B8760508E3
:1018C000053C0008C80B0020947605086911000843
:1018D000100700200004004000000140000000004C
:1018E000294AF8B50368934243D1284BD3E9004510
:1018F00023A3D3E9002320462946FFF733F990B10B
:10190000234BD3E900671EA3D3E9002330463946B1
:10191000FFF728F938BB3046394619A3D3E900232D
:10192000FFF70CF908BB2046294615A3D3E900238D
:10193000FFF704F9D8B1164911A3D3E90023D1E97F
:101940000001FFF70FF9002814BF02230323114AF7
:101950001360114B1A681E2A04BF00221A601A680D
:1019600001321A60F8BD0023F1E70123EFE70323FA
:10197000EDE70A4A9342F5D1BDE8F84004F094BC83
:10198000CDCCCCCCCCCCFC3F0004004000070020E8
:101990000807002014070020F8060020001000406F
:1019A000704700000D4B82B00F216FF001001A6CE0
:1019B00042F080521A641A6C02F080520092009A2F
:1019C0005A6C42F480425A6400225B6C03F48043F8
:1019D0000193019B02B004F00BBF00BF003802402E
:1019E00070B588B005461422002103A84FF044FCCE
:1019F0002A68294B9A424CD103F58B33032403A95F
:101A000026485A6C002642F480625A645A6C02F4EA
:101A100080620092009A1A6B42F020021A631A6BDD
:101A200002F020020192019A1A6B42F001021A633D
:101A30001B6B03F001030293029B4FF4C063CDE9DB
:101A4000033405F09DFA012303A915480596CDE955
:101A5000033405F095FA134C4FF08063124A4FF4AB
:101A600080614FF48040C4E900234FF48053C4E9FF
:101A700004134FF48073C4E906032046C4E90266E8
:101A8000C4E9086604F0C4FF08B1FFF789FFAC633E
:101A9000A56308B070BD00BF0022014000140240E1
:101AA000000002408004002010640240026882B0FE
:101AB000084B9A420BD1D3F8302803F5006342F467
:101AC00080521A631B6B03F480530193019B02B095
:101AD000704700BF003002400E4B07B502689A42C3
:101AE00015D1A3F5F04305215A201A6B42F40002E8
:101AF0001A6300221B6B03F400030193019B04F0A3
:101B000077FE5A2003B05DF804EB04F0A3BE03B0E7
:101B10005DF804FB00B0024010B5A8B004461422E2
:101B2000002102A84FF0A8FB8422002107A84FF053
:101B3000A3FB2268174B9A422AD14FF4803307A89F
:101B4000079306F0E3FE08B1FFF72AFF124C4FF4AB
:101B5000C07201211148236B43F080032363236B80
:101B600003F080030093009B1223CDE9022303239B
:101B7000CDE90413042302A9069305F001FA236CAE
:101B800043F400032364236C03F400030193019BDB
:101B900028B010BD005C004000380240001C02402C
:101BA000026808B5094B9A420FD1094A80210948B9
:101BB000136C23F40003136405F0C4FA4FF480712E
:101BC0000448BDE8084005F0BDBA08BD005C00400F
:101BD00000380240001C024070B5ACB0044614222C
:101BE000002106A84FF048FB842200210BA84FF0EB
:101BF00043FB2268464B9A4240F0878008230BA89B
:101C00000B93642310930223CDE911330123159321
:101C100006F07CFE08B1FFF7C3FE3E4B0024022510
:101C20000E265A6C06A93C4842F080625A645A6CEF
:101C300002F080620092009A1A6B42F010021A635E
:101C40001A6B02F010020192019A1A6B42F40072B0
:101C50001A631A6B02F400720292029A1A6B42F42F
:101C600080621A631A6B02F480620392039A1A6B01
:101C700042F040021A631A6B02F040020492049A86
:101C80001A6B42F480721A631B6B03F48073059322
:101C9000059B1023CDE90635CDE908440A9605F0E9
:101CA0006FF94EF6FF7306A91C480A96CDE9063572
:101CB000CDE9084405F064F9F72306A918480A9607
:101CC000CDE90635CDE9084405F05AF94FF48053C3
:101CD00006A91448CDE906350923CDE908440A933D
:101CE00005F04EF94FF4464306A90F480A96CDE990
:101CF0000635CDE9084405F043F958202246052170
:101D000004F076FD582004F0A5FD2CB070BD00BF96
:101D100000680140003802400010024000240240E8
:101D20000028024000180240002002401422002136
:101D30002DE9F0418AB004460DEB02004FF09CFA09
:101D400022682C4B9A4251D12B4B022503240926A1
:101D50009A6B4FF0040805A9284842F002020027B8
:101D60009A639A6B02F002020192019A1A6B42F096
:101D700010021A631A6B02F010020292029A1A6B96
:101D800042F002021A631A6B02F002020392039AF3
:101D90001A6B42F008021A631B6B03F008030493EA
:101DA000049BCDE90585CDE9084605F0E9F8402317
:101DB00005A91348CDE905350A23CDE90774099330
:101DC00005F0DEF805A90E480996CDE90585CDE9AF
:101DD000077405F0D5F84FF4605305A90948099632
:101DE000CDE90535CDE9077405F0CAF80AB0BDE8BC
:101DF000F08100BF001000A0003802400010024037
:101E000000040240000C0240026808B50B4B9A42E5
:101E100013D10B4A04210B48936B23F00203936305
:101E200005F090F94421084805F08CF94FF4605111
:101E30000648BDE8084005F085B908BD001000A0BF
:101E4000003802400010024000040240000C024032
:101E5000036807B5134A93420CD1134B5A6C42F0F6
:101E600001025A645B6C03F001030093009B03B012
:101E70005DF804FB0D4A9342F9D10B4B05211D205F
:101E80001A6C42F002021A6400221B6C03F0020377
:101E90000193019B04F0ACFC1D2003B05DF804EB42
:101EA00004F0D8BC000001400038024000040040AB
:101EB000F0B5002387B00393294B1E68002E4DD147
:101EC0000122022703250C241A6001A9254B26486C
:101ED0009A6B42F001029A639B6B03F0010300933B
:101EE000009B4FF68373CDE90454CDE9013705F02B
:101EF00047F848F2331301A91C480594CDE901378E
:101F0000CDE9036505F03CF84CF2037301A91848CC
:101F10000594CDE90137CDE9036505F031F84FF6B9
:101F20003F0301A913480594CDE90137CDE90365C5
:101F300005F026F8282301A90F480594CDE90137BB
:101F4000CDE9036505F01CF8082301A90B480594A9
:101F5000CDE90137CDE9036505F012F807B0F0BD12
:101F6000CC0B002000380240001002400018024054
:101F7000000C024000140240001C02400008024015
:101F8000214B1A6C42F0100270B51A6488B01B6CB9
:101F9000054601A903A803F010030293029B06F073
:101FA00097FC069B4BBB06F083FC184E184B336026
:101FB00040F2E733F360174BB0FBF3F3013B3046DD
:101FC000736000233361B360B36107F0D7F904464F
:101FD00080B9304607F060F8044658B9362004F05E
:101FE00039FC0F2D0DD822462946362004F000FC7E
:101FF000094B1D60204608B070BD06F059FC40003A
:10200000D3E70124F6E700BF00380240D00B0020E0
:102010000010004040420F00400000207047FEE7E3
:10202000FEE7FEE7FEE77047014807F090B800BF03
:10203000A8060020014807F08AB800BFD00B002096
:10204000014804F0DFBD00BF80040020014805F016
:10205000A5BD00BF34050020014804F0BFBE00BF8D
:10206000400400200120704708B551F009F91623FB
:1020700003604FF0FF3008BD08B551F001F9162399
:102080000360FEE770B50D4614460E46731B9C4276
:1020900001DC204670BDAFF3008006F8010BF5E7C8
:1020A00070B50D4614460E46731B9C4201DC20465B
:1020B00070BD16F8010BAFF30080F5E74FF0FF306D
:1020C00070474FF4005300204B6070470120704769
:1020D0000020704770470000DFF834D0002103E093
:1020E0000C4B5B58435004310B480C4B42189A423E
:1020F000F6D30B4A02E0002342F8043B094B9A4214
:10210000F9D303F0D5FF51F0C1F8FFF787F8704716
:10211000000005207C1D0608000000209803002018
:1021200098030020887D0020FEE7704708B501F085
:1021300037F9BDE8084001F0B9B801F033B940689B
:1021400070474160704700004FF0E022D2F8FC3D3C
:1021500043F08073C2F8FC3D054B064AD3F8B01F2C
:102160000A43C3F8B02F1A6842F001021A607047A0
:10217000001000E055CEACC5511A01EB5301B1FB84
:10218000F3F07047014B5868704700BF001000E043
:10219000704710B504460C2131F089FA204610BD75
:1021A000036810B51B69044631B19847A26863689B
:1021B0009B1A1844606010BD9847A060FBE70000C0
:1021C000024B7020024A1360DB681847140000209D
:1021D000200C0020704710B50446042131F067FA46
:1021E000204610BD73B50E4E0D461446336813B924
:1021F000002002B070BD1B69702098470028F7D0FE
:102200003368702001AA0DF106015B699847BDF89B
:10221000043001202B60BDF806302360E9E700BFE1
:10222000200C00207FB501238DF817204FF47A721F
:10223000CDE901320DF1170200920A460146054828
:1022400005F0B8F910B1034805F09BF907B05DF847
:1022500004FB00BFE00400207FB500230A464FF4D2
:102260007A718DF817300123CDE901310DF1170195
:1022700000910146054805F077FA10B1034805F0D2
:1022800080F99DF8170007B05DF804FBE00400201A
:10229000032823D8DFE800F0020B131A104B10219B
:1022A00010481A68B2FA82F2520904F0F1BF0C4BDE
:1022B00040215A68B2FA82F252090B48F5E7084BFE
:1022C00080219A68B2FA82F25209F6E7044B402163
:1022D0000648DA68B2FA82F25209E6E7704700BFB0
:1022E000240C0020000402400008024000180240B4
:1022F000032823D8DFE800F0020B131A104B10213B
:1023000010481A68003A18BF012204F0C1BF0C4BF4
:1023100040215A68003A18BF01220B48F5E7084BE4
:1023200080219A68003A18BF0122F6E7044B402149
:102330000648DA68003A18BF0122E6E7704700BF96
:10234000240C002000040240000802400018024053
:1023500003280FD8DFE800F00206090B1021064819
:1023600004F09BBF40210548FAE78021FBE74021AC
:102370000348F5E7704700BF000402400008024030
:102380000018024008B5032813D8DFE800F0020A5D
:102390000D0F1021084804F075FF431E58425841A4
:1023A00008BD40210548F6E78021FBE740210448AD
:1023B000F1E70020F1E700BF0004024000080240FE
:1023C0000018024070B5084D00240126E0B2FFF766
:1023D000D9FF18B12B68012B18BF2E6001340435CA
:1023E000052CF3D170BD00BF240C0020012380F820
:1023F000781080F8793070470020704741640039C8
:10240000024B18BF01211970704700BFEF5A00201E
:1024100000207047836B0BB10846184770474FF692
:10242000FF707047406803689B6918477047000059
:1024300038B5044601F018F9084923682046084DCC
:10244000D3F88C3098470023284684F84A30FFF7A9
:102450007BFE0123256184F8703038BD000000C088
:10246000340C002001F0A2B801F0A6B870B501F05C
:1024700025F910490023C1F88430BFF34F8FD1F8FC
:10248000803043F6E074C3F3C900C3F34E335B01FD
:1024900003EA0406024646EA8275013AC1F874521C
:1024A000F9D2203B13F1200FF2D1BFF34F8FBFF3CE
:1024B0006F8F70BD00ED00E001F002B901F052B87D
:1024C00001F01CBA01F024BA01F056B810B5044668
:1024D00017F080FF23682046D3F8AC30BDE81040E9
:1024E000184717F0D5B910B504467C2131F0DFF854
:1024F000204610BD90F87A301BB1406803681B6815
:10250000184718467047000090F834100D4B10B56E
:1025100090F878401A788C4209D03AB90A490B4AA7
:1025200008881488108001220C801A7010BD002ABF
:10253000FCD0064A0449148808880C8010800022C8
:10254000F3E700BFE85A0020E65A0020E45A0020D2
:1025500070B50D46194635B9094B40F2D221094AEA
:1025600009484CF03FFDC0E90F52003A074B18BF35
:1025700001221A700368BDE87040D3F88C30184708
:102580001C77050854770508A2770508EE5A002045
:1025900008B5094B1B888B4203D8084B1B88934214
:1025A00005D9074B9E21074A07484CF01BFD074BF6
:1025B0001980074B1A8008BDE45A0020E65A002013
:1025C000E77705084A780508A2770508EA5A002047
:1025D000EC5A0020014608B5034B186801B10121EF
:1025E00017F012FF012008BDF05A0020034B002213
:1025F0005A609A60024A1A60704700BF340C00208B
:10260000E47605080121002208B5084607F086FA9D
:102610000A4B186028B90A4B28210A4A0A484CF08C
:10262000E1FC00220421012007F03EFB074B18606B
:1026300018B9074B2C21034AF0E708BD440C0020D1
:1026400068790508B1790508E0790508400C002093
:10265000207A0508024B4FF0FF31186807F0B4BA32
:10266000440C0020014B186807F0E8BA440C002025
:10267000024B0021186807F0A7BA00BF440C0020E5
:10268000FFF7F0BF0023034803491A46006807F02C
:1026900051BB00BF400C00200800002013B50023F0
:1026A000074C01A91A46206807F086FB4FF0FF335C
:1026B000002201A9206807F07FFB02B010BD00BF17
:1026C000400C002003685B6C1847012070470368CA
:1026D0009B6A18470D4B82B01A6B42F400021A63D2
:1026E0001A6B02F400020192019A1A6942F4000284
:1026F0001A611A6922F400021A61054B054A1A612F
:102700004FF08062044B9A6002B07047003802407C
:10271000400400205D27000800E100E040F2EF30B7
:1027200070470000054B4FF080620360044BC3F814
:102730008820BFF34F8FBFF36F8F7047B07B0508C2
:1027400000E100E010B504464FF45A61FFF7EAFFDC
:10275000204630F0ACFF204610BD0000024B1B6845
:10276000586803685B691847F05A002070B5044642
:102770000A4B0C3000262546602260602672667285
:1027800045F8203B294617F095FF04F55A63EE60A3
:102790002435AB42FBD1204670BD00BFB07B05089D
:1027A00008B50B290BD8DFE801F01206100A0A0A57
:1027B0000A0808080808012008BD0520FCE7054BA9
:1027C0006521054A05484CF00DFC0020F4E7022085
:1027D000F2E700BF627A05087D7A0508C77A050826
:1027E00008B50A2909D8DFE801F010060E08080824
:1027F000080606060600012008BD054B8621054A8D
:1028000005484CF0EFFB0020F6E70220F4E700BF9C
:10281000627A0508057B0508C77A05082DE9F843A3
:1028200091F81D800C4607464146FFF7B9FF94F822
:102830001E90054638464946FFF7B2FF4946064610
:102840003846FFF7CDFFA18A628B434B521A1A64B8
:102850009A61228B521A1A61E28A586342EA014253
:1028600020695A646268D863DA602768802F28D0AC
:10287000227F0FD8202F65D0402F63D0042F1AD08D
:1028800045EA0265344BC84545F40035DD615FD04B
:10289000324A44E0B7F5807F04D0B7F5007FEFD12E
:1028A0002F4900E02F4941EA0262DA61E2681A62C8
:1028B0005E62586132E045EA026242F40032DA6157
:1028C000F6E7A7683A1DDA62217F3A7845EA0165A2
:1028D00045F40035DD615E62586142B1012A21D0C4
:1028E000214B4FF48871214A21484CF07BFBDA6977
:1028F000798822F47F42013922F0100242EA012253
:102900000121DA61144BDA6942F02002DA61DA69F6
:102910009206FCD410229A600029B9D0154A1A6098
:10292000BDE8F883DA69FF39788822F47F4218BF5E
:102930000121013822F0100242EA002242F0100286
:10294000DA61DFE745EA0262034B42F40032B6E7A0
:1029500040F20122E3E700BF00B0024001020100A3
:10296000090002000A000200507B05086A7B050886
:10297000C77A05080102020038B50C46897FFFF7C7
:102980002FFF174BA58AE28A586342EA0542216964
:102990005A64628BD963521B1A642568082D0ED1C4
:1029A0009A611A6158620F4A207F42EA0062DA6136
:1029B000E2681A620C4A5961D9601A6038BD002277
:1029C000D8611A61E1680A0A4809C1F3C40102F436
:1029D000784200F4FC6002430A439A63034AECE73E
:1029E00000B00240090001000102020001020300E0
:1029F000034B1A68D207FCD423229A60704700BFA9
:102A000000B0024030B5104C2568ED07FCD42325FA
:102A10000904FF2BA56041F001014FF00205656339
:102A20006164E0630AD00949656241EA0363E361D6
:102A3000074B22626061E060236030BDE561039B6B
:102A4000A363044BF8E700BF00B002400900010097
:102A500001000200010003004069704790F8440043
:102A60007047036B23B9C06A003818BF0120704754
:102A70000120704780687047043010B50C460FC8BD
:102A800084E80F0010BD704708B5034A40F21221D8
:102A9000024B03484CF0A6FAF87B05083F9805085E
:102AA000537C050810B50446482130F000FE20464E
:102AB00010BD00002DE9F0431C46436BADF51F7DB2
:102AC00005460E461746002B37D0002203A8DFF834
:102AD000A890CDE901320FF045FA4FF4F47250217D
:102AE000249024A809F08DF93A46314624A80AF02A
:102AF00009F9012124A809F087FA022324A88DF8F6
:102B0000D83009F025FBBDF898322B9ABDF89C62AD
:102B10009342A89F28BF1346419A964203EB43086D
:102B2000A7EB430728BF1646479B9E4209D824A817
:102B300009F08CFA24A809F0B1F90DF51F7DBDE864
:102B4000F083012201A924A809F04BFB6B6B03EB76
:102B50000800984201D83C44E6E759789A78C900C1
:102B600009EA022201F4FC610A4313F8031B42EA5A
:102B7000D10224F8022BECE700F8FFFF0A4A0260BA
:102B80000022C0E90522C0E90722C0E90922C0E904
:102B90000B22C0E90D12C0E90F2280F84420C0E9E1
:102BA0000322C0E901227047247F050810B40C46B7
:102BB00011461A46036B3BB1036C806BE41A204448
:102BC0005DF8044B4EF052BDC06AF8E7036B10B5D8
:102BD00073B1036C826BC91A5318525C98785C7895
:102BE0000004DB7840EA0420104340EA036010BD93
:102BF000C36A5858FBE7036B43B1036CC91A836B74
:102C00005A18585C527840EA02207047C36A585AF2
:102C10007047000070B50446006B0D461646D8B1EB
:102C2000E36B934208D209230D4A65210D4884F8CD
:102C300044300D4B4CF0D6F90368DB689847206BA5
:102C40003246A16B03681B69984710B90D2384F8BD
:102C50004430A06B256470BDE06A0844FBE700BF08
:102C6000B07C0508537C05089D7C05082DE9F843D8
:102C7000436904462BB9234BAA21234A23484CF02D
:102C8000B1F908228169FFF7C5FFA16943F2300657
:102C900046F2643704312046FFF798FFA3691844D1
:102CA000A36A00F108029A4206D30123002063615F
:102CB000236AA361BDE8F883636909300822013300
:102CC00020F0010120466361A161FFF7A3FFD4F862
:102CD000189020464946FFF78EFF09F10201804611
:102CE0002046FFF788FF09F1040105462046FFF75B
:102CF0006DFFB045D2D1BD42D0D10028CED0012049
:102D0000D8E700BFF27C05083B7D0508537C050829
:102D10002DE9F04F0446ADF51F7D8A4616468169C0
:102D200008229846FFF776FFA7692046391DFFF76E
:102D30004DFF07F10801024605462046FFF76AFFEE
:102D4000636B074633B93C4B40F2AB113B4A3C48FE
:102D50004CF048F9002203A8CDE901320FF002F946
:102D60004FF4F4725021249024A809F04AF82A461E
:102D7000394624A809F0C6FF012124A809F044F926
:102D8000022324A88DF8D83009F0E2F9BAF90250EC
:102D9000479BAB4229D3BAF900904FEA4808BAF8EA
:102DA00004702B9B08FB05664F44BAF80250DFF80D
:102DB00094B03FB29F4228BF1F46BAF8063009EBD5
:102DC000490A1D44419B2DB29D4228BF1D46479B89
:102DD000AB4210D324A809F039F924A809F05EF811
:102DE00001200DF51F7DBDE8F08F012201A924A867
:102DF00009F0F7F9CCE7012201A924A809F0F1F9BB
:102E0000626B49465244B94202F1030201D346447F
:102E1000DDE712F8020C12F8013CC0000BEA0323B4
:102E200000F4FC60034312F8030C43EAD00326F8D5
:102E300011300131E7E700BF6E7D0508C47D05084C
:102E4000537C050800F8FFFF0129036838BF012102
:102E5000DB6A70B50D4604469847A84204D2236841
:102E60002046DB6A984705466B1EE669102220461D
:102E700006EB031606F10801FFF7CCFE06F1100180
:102E80002046FFF7A3FE236A043B0344C4E905532D
:102E900070BD00002DE9F341002104464822816104
:102EA00080F84410FFF7B6FEA7690423634A394649
:102EB0002046FFF77BFE40B10323614AF22184F8EC
:102EC0004430604B60484CF08DF807F10801042352
:102ED0005E4A2046A161FFF769FE30B10423584ADB
:102EE000FA2184F844305A4BECE707F10C01042333
:102EF000584A2046A161FFF759FE064638B105231E
:102F00004F4A40F2011184F84430534BDAE707F19D
:102F100010012046FFF75AFE054620B94F4B40F2FC
:102F20000711474ACEE707F1140804234C4A20460C
:102F30004146FFF73BFE00284BD0062384F844307F
:102F40000423484A07F118012046FFF72FFE002806
:102F500041D0072384F844304544434F0C22204697
:102F60002946FFF757FE05F1080604233A46204696
:102F70003146FFF71BFE94F8443000284AD0002B5E
:102F80004AD1A36A291DAB424AD805F10C03291D79
:102F90002046A3610191FFF719FE30440199606258
:102FA0002046FFF713FE0644042220463146FFF771
:102FB00031FE04232D4A31462046FFF7F7FD002855
:102FC00039D10123E6616361A369236202B0BDE8E0
:102FD000F0810126B4E7002EBED007F12001204683
:102FE000FFF7F4FD4FF47A7307F13001B0FBF3F013
:102FF00060602046FFF7EAFD07F14001A06020462F
:10300000FFF7E4FD07F14401E0602046FFF7DEFD35
:103010002061A1E7002BB8D00A2384F84430D5E71B
:103020002046FFF7D3FD08300C22054420462946F0
:10303000FFF7F0FD97E70B23EFE700BF1E7E0508C3
:103040003C7E0508237E0508537C0508697E05083B
:103050006E7E0508867E05088B7E0508A17E050824
:10306000AD7E0508B27E0508B77E0508BC7E050862
:10307000C0E90A2100220263FFF70CBF10B500234C
:1030800004460846E3620B6821639B689847A06288
:103090002046BDE81040FFF7FDBEF0B4BDF810506B
:1030A000BDF814602AB123B1CDE90456F0BCFFF796
:1030B00001BDF0BC704700002DE9F04F994643690F
:1030C00085B004460F4690462BB92A4B77212A4AF1
:1030D0002A484BF087FF08228169FFF79BFDA6690C
:1030E00020463146FFF787FDB11C83462046FFF797
:1030F00082FD311D82462046FFF768FD06F108017A
:10310000A36A054642189A4227D243F230039B45F0
:1031100017D146F264339A4513D190B10246A161AA
:103120002046FFF777FD0E9B01462A462046CDF844
:103130000080CDE901933B46FFF7AFFF63690133A0
:103140006361A3692B448DB1A361A369626A0133F2
:1031500023F001039342A3610AD10120236A606135
:10316000A36180F0010005B0BDE8F08F0833EBE704
:103170000020F6E7F27C0508C17E0508537C0508AF
:10318000012070470C2070470C2303FB010008301E
:1031900070470C2303FB0100083070470120704783
:1031A00042F22060704742F2206303FB01000830C6
:1031B000704742F2206303FB010008307047012092
:1031C00070471020704700EB01100830704700EB8B
:1031D000011008307047084600F04ABF034B10B595
:1031E0000446036015F0DCFE204610BDCC7F0508C8
:1031F00010B50446FFF7F2FF1421204630F057FACD
:10320000204610BD034B10B50446036015F0C8FE00
:10321000204610BD987F050810B50446FFF7F2FF61
:1032200042F22861204630F042FA204610BD0000EC
:10323000034B10B50446036015F0B2FE204610BDE6
:10324000647F050810B50446FFF7F2FF18212046F9
:1032500030F02DFA204610BD094B10B5044603602E
:1032600000F519501430FFF7B9FF04F12C00FFF7F7
:10327000C9FF04F11400FFF7DBFF204610BD00BFBB
:103280000080050808B50248FFF7E6FF08BD00BF4B
:103290004C0C002010B50446FFF7DEFF42F2CC7163
:1032A000204630F004FA204610BD00002DE9F3411D
:1032B00000F052FD0024054600F052FD2346014671
:1032C00022462846009421F05BF9284B284A2046E4
:1032D000284D1A6002F096F8274B284A28489A6031
:1032E00021F0B6F82B68BFF35B8FDB0737D4284695
:1032F00030F0DFF998B3234C234B04F1140004F1B0
:103300002C08236000F519576060C4F8088007F1A5
:103310001C06E760266115F045FE1C4B40466361C4
:1033200015F040FE1A4B3846E36215F03BFE04F5FB
:103330000053184A03F5CD60C3F8542602F0EAF8AA
:10334000224607F11401304602F0DAF8304600F068
:103350008FFE11484BF064FE284630F0B6F90F4856
:1033600002B0BDE8F041FFF763B800BF545B002036
:1033700054420020480C00205842002018340020FD
:103380000C0000204C0C002000800508647F05081C
:10339000987F0508CC7F050885320008D8410020B9
:1033A00070470000014816F0DCBA00BFD841002089
:1033B00070B52548254E30F0C9F9254C254B3046CF
:1033C000254D2360FFF7D2F9284625F0B3FB2348AB
:1033D0001EF0B4FB224B00224FF4807121481A8664
:1033E00083F858205A6683F870205A67DC60C3E976
:1033F00012121D49C3E91A121C4999671C490B6036
:103400004FF4F07101801B4801804FF488711A4815
:10341000C3E90422C3E90622C3E90822C3E90A2258
:10342000C3E90E22C3E91022C3E91422C3E917221B
:10343000C3E901650180114883F8342001801049F7
:103440000A70104A1A6070BDE04200203834002033
:10345000343400200C77050858420020183400202E
:10346000D8410020E45A00200100000100000101C1
:10347000F05A0020EA5A0020E65A0020EC5A0020B8
:10348000E85A00209878050808B50448FFF74AF97B
:103490000348BDE8084030F08DBA00BF3834002042
:1034A000E04200200020704781807047C180704753
:1034B000018170474181704770477047704770477E
:1034C000704710B4C4880368121B84885B6D091BA5
:1034D00012B25DF8044B09B218474FF6FF738381AF
:1034E0004FF0FF3303621368C3611060704790F8B8
:1034F00025201AB190F8242002B1186070470020EE
:1035000070478B88838001207047704780F82610B1
:10351000704790F826007047002210B5B1F90840B6
:10352000B1F90A10028042808480C18010BD00225F
:10353000028042808280C28070470177704780EDB0
:10354000080A704780F82410704780F825107047EB
:1035500001207047983070478C3070478430704736
:1035600070470000034B902283F85A2383F85823B6
:10357000704700BF00E100E0094A0A49D3680A48E1
:10358000C3F30A03013B9BB20B801169C1F30A012B
:10359000013901801364536B43F001035363704797
:1035A000006801404243002040430020014BD3F813
:1035B000AC00704700680140024B0122C3F8AC1018
:1035C0005A62704700680140124A5369DB0370B5C4
:1035D0001ED50023C2F88430BFF34F8FD2F880305D
:1035E00043F6E074C3F3C900C3F34E335B0103EA4F
:1035F0000406014646EA81750139C2F87452F9D2CF
:10360000203B13F1200FF2D1BFF34F8FBFF36F8F29
:1036100070BD00BF00ED00E0704770477047382371
:10362000002201FB0333C25490F838300BB9036C0D
:1036300083647047704780F84C10704710B504469B
:10364000582130F034F8204610BD10B504462C2126
:1036500030F02DF8204610BD10B50446BC2130F0E6
:1036600026F8204610BD000038B5044616F065F96E
:1036700023685D6E1DF0EAF801462046A8472368DE
:10368000084A2046D3F888500023A2F57F31A84786
:10369000054B064A5A60064A1A649A644FF4FF22A0
:1036A0005A6438BD00F807C0E8420020844B00206F
:1036B00000F40BC016F028B916F032B916F0EEB8C7
:1036C00016F05DBA90F8252012B103685B691847BF
:1036D0007047000008B531B1044B40F29711044A1D
:1036E00004484BF07FFC90F8390008BD0C800508B9
:1036F00020800508AD81050810B531B1064B40F2B8
:103700009111064A06484BF06DFC4068114603686B
:10371000BDE810401B6B18470C800508EF810508B9
:10372000AD81050808B529B1034B7A21034A044845
:103730004BF058FC006908BD0C800508A083050803
:10374000AD81050808B529B1054B8321054A064816
:103750004BF048FC41618160C0E9063208BD00BF02
:103760000C80050858850508AD81050810B504468C
:1037700029B1274BA421274A27484BF033FC052ABF
:1037800034D8DFE802F003292F34393E406803685B
:103790001B69984750B34FF0FF31606D06F064F934
:1037A0000023012294F83E1084F83B3084F839203D
:1037B000A360636101B1226284F83E306362E36A10
:1037C0002BB90123206D84F83A3006F037FA606D8A
:1037D000BDE8104006F078B9002380F8393084F84D
:1037E0003E3003E0036200238360436110BD036247
:1037F000002383604361F2E7002380F8393001231E
:10380000EDE7003B18BF012380F83D30EEE700BF35
:103810000C80050817870508AD81050870B50446BA
:10382000164629B1314BE721314A32484BF0DAFBD9
:1038300090F8393033B1304B1B6893F86B204369F3
:1038400013444361E36A002B4DD0E169D4E90532AA
:103850005343A2684A43934220D2236A002B42D0AA
:103860004FF0FF31606D06F0FFF8236A0BB10023C3
:10387000E362E36AFBB90125606D06F025F994F86F
:1038800039300BB9236A3BB1E36A2BB90123206DB0
:1038900084F83A3006F0D2F9284670BD94F84C000E
:1038A0000028DDD09B1AB3FBF1F2994298BF02F1D8
:1038B000FF326262D4E7002294F83C50A3623046A3
:1038C000E262E2682261A2680132A2603363336877
:1038D0005B699847002DCED194F83D30002BCBD1B9
:1038E00084F83950C8E70125C9E700BF0C800508F6
:1038F000EE880508AD810508F05A0020034B4FF013
:1039000080629A604FF080729A60704700E100E038
:10391000084B4FF08062C3F88820BFF34F8FBFF38E
:103920006F8F4FF08072C3F88820BFF34F8FBFF3C3
:103930006F8F704700E100E038B5034690F838001B
:1039400038BB01229860D8609A634FF48072586146
:103950009A874FF4F0729861D86118625862986241
:10396000D8621863586383F83E00CA864FF48872A1
:1039700081F834000A8708639A6C186102F5FF2405
:10398000D3E9101529448C420AD9084B5821084A1A
:1039900003E0084B40F2F511074A08484BF022FBC0
:1039A0001A6302F57F329C645A6338BD4C8C05085B
:1039B0008C8C0508928A0508C28A0508AD81050825
:1039C000002370B5124E05468380124B03603368A6
:1039D00093F858200AB1D86C00B998680368DB6A7C
:1039E00098473368B0FA80F4D86C640930B1036842
:1039F000DB6A9847002808BF44F001042CB9064B45
:103A00002C21064A06484BF0EDFA284670BD00BF4F
:103A1000F05A0020348F0508328E0508908E050874
:103A2000C98E050870B5244E3568BFF35B8F15F05D
:103A300001053FD130462FF03CFE00283AD01F4C04
:103A40001F4B04F134002561E584A562A585C4E916
:103A50000035C4E902551EF0D0FA04F1580019F0FF
:103A600075F8184B2046A365174B40F8843BFFF7C9
:103A7000A7FF164B1648C4F884302433C4F890507E
:103A8000C4F88C306423C4F89C50C4F8A850C4E92E
:103A900028350023C4F8AC30C4F8B030C4F8B430D2
:103AA000C4F8B8300B4BC4F898304BF0B9FA304634
:103AB0002FF00BFE014870BDE44200204843002077
:103AC00078BE0508548F0508CC8F05082CBE050864
:103AD000613500080CBE050810B5144C236823B3EB
:103AE000134B144A1B6C11888B4213D1124B19884B
:103AF00004F0DEF8226892F86A30013382F86A3006
:103B0000FEF7C0FD206816F065FC0020BDE81040FF
:103B1000FEF7BEBB04F0CCF8206803681B6A984728
:103B20000020BDE81040FEF7E3BB10BDF05A0020B6
:103B30000068014042430020404300202DE9F74344
:103B400004464FF4707894F83A304FF0FF31002B70
:103B500031D0606D05F088FF276BA36ABB4200D1AE
:103B6000676B266A656856B32B68314628465B6AE0
:103B700098470023236284F83B30606D05F0A4FF72
:103B80002B684FF4F0723946CDF8008028465E6904
:103B90004FF48873B0474FF0FF310646606D05F073
:103BA00063FF94F83B30E3B1002384F83B30606D51
:103BB00005F08AFFC7E7206D06F006F8C3E7636AE1
:103BC000002BDAD02B682846D3E909939847616A1D
:103BD00001442846C847A368626A66621344A3602A
:103BE000CBE7E7625EB12B6828469B6A98470138AD
:103BF0000023E06084F83C6084F83A30D7E7012085
:103C0000F6E70000014808B5FFF798FFE8420020FA
:103C10000368042270B504465E6A00230D46B0476F
:103C20004FF0FF31606D05F01FFF382303FB0542A5
:103C3000D16A09B10021D16203FB0545012385F852
:103C40003B30002385F83930606DBDE8704005F0E9
:103C50003BBF38B500EB810304460D46114658685A
:103C60000368DB68984729462046FFF7D1FF38BD37
:103C700070B50D461146044600EB85025068026897
:103C800096681A46B04729462046FFF7C1FF70BD27
:103C900038B5184800252FF059FD17491748FEF789
:103CA0006DFF174C174B01202A46294623604FF41D
:103CB0008073A564A38784F84C0084F83E50C4E95F
:103CC0001055C4E91455C4E90155C4E90355C4E9C4
:103CD0000555C4E90755C4E90955C4E90B55C4E9BC
:103CE0000D5505F01BFF2065284605F079FE60653F
:103CF00038BD00BF4443002004440020844B002012
:103D0000E84200201890050801482FF053BE00BF7C
:103D100044430020704710B5044604212FF0C7FC2F
:103D2000204610BD08B5032913D8DFE801F00206CC
:103D30000A0E01F0B3FB006808BD01F0AFFB40685C
:103D4000FAE701F0ABFB8068F6E701F0A7FBC0687B
:103D5000F2E70020F0E70000004870476490050893
:103D60000720704713B5002451B1036801AA0194DC
:103D70008DF803409C680DF10303A04702B010BD0D
:103D80000846FBE7C0897047008A7047C0887047C3
:103D900080887047807A00F07F007047807AC00981
:103DA00070470020704700009FED010A704700BF78
:103DB00000000000704710B5044608212FF077FC82
:103DC000204610BD7047704700F598730868496831
:103DD00003C37047704770474160704770470000E9
:103DE000064BC0F84801C0F84C310023C0F85031F0
:103DF00000F5A273C0F84031704700BFA53E00082F
:103E00000123037270477047704710B4416803463E
:103E1000C2689B68541001EB6200D20748BF0A5980
:103E20005DF8044B48BFD358184743682BB18368EB
:103E30002BB9C06800F00100704718467047012098
:103E4000704710B504460C212FF031FC204610BD00
:103E500010B5044610212FF02AFC204610BD10B5E5
:103E600004464FF4AE712FF022FC204610BD10B571
:103E70001CF0ECFC0368BDE81040DB6B184710B584
:103E80000446D0F8400158B10368DB68984738B160
:103E9000D4F8400103689B6898470023C4F8403178
:103EA00010BD00002DE9F14FD0E9555A0746A8682A
:103EB00003681B6A984742F21F63984205D8464B35
:103EC000A321464A46484BF08DF8686803681B6A90
:103ED00098470F2803D8434BA421404AF2E7E868EB
:103EE00003681B6A98470B2803D83F4BA5213B4A20
:103EF000E8E7DFF8FC901CF0A9FC04301CF0E4FCBF
:103F0000D9F8000010B10368DB689847D9F80000C1
:103F100010B103681B689847DFF8D880D8F8000014
:103F200010B103685B699847D7F83C0110B103688A
:103F30005B689847D8F8000010B103681B68984781
:103F4000D7F83C0110B103689B689847E8680021E6
:103F50004FF0000B03685B6A9847244B0446C0F897
:103F600004B00360594680F808B0A86803685B6A2B
:103F70009847064601F06EFB6868594603685B6A1D
:103F800098470546314601F017FBC9F80040C7F8CD
:103F90003C51C8F80060E5B12B1DCAF8003030462E
:103FA0003368C5F808A0DB68F56398472B68284696
:103FB0001B689847214630461EF030FD2368204696
:103FC0001B699847236820465B6901B0BDE8F04F44
:103FD00018472B46E1E700BF009105088E910508C0
:103FE00092920508D99205087C93050894940508D7
:103FF000385B0020345B0020044B1B6893F858208A
:104000000AB1D86C00B99868704700BFF05A002018
:10401000F8B5044617460E461CF028FD104B002547
:104020001C6029460F4B23600F4BC4E951350F4BE1
:104030001868C4E953550368C4E94F559B68C4E93F
:1040400055769847284601F0DDF9FFF7D5FF26F0B1
:10405000A2FBFFF7D1FF26F019FC2046F8BD00BFF8
:10406000445B00204094050828940508F05A00207D
:10407000064BC0F84801C0F84C310023C0F850315D
:1040800000F5A273C0F84031704700BFA53E00089C
:1040900001482FF05BBB00BFCC4B002001482FF044
:1040A00089BC00BFCC4B0020406A7047806A7047D3
:1040B00070478B88C069DB0A0A6850F823001044F7
:1040C000704710B5C2B1137BB3B1547BD27A2402CE
:1040D00004F4E0641443026A98B202EB8402138889
:1040E0008B4202D192F9020010BD05D8013804328A
:1040F00080B20028F3D1F7E70020F5E710B50446B9
:104100002C212FF0D4FA204610BD000030B58BB022
:104110000446BDF860500895BDF85C5007959DF8C1
:10412000505006959DF84C5005959DF848500495C3
:104130009DF8445003959DF8405002959DF83C50E1
:104140000195BDF8385000951EF014F8064B204636
:104150002360159BE361169B2362199B63621A9B84
:10416000A3620BB030BD00BFB8940508704770471C
:1041700070477047704730B585B0036804460181C9
:104180006D460146D3F884303C342846984795E87C
:10419000070084E8070005B030BD30B585B003687E
:1041A000044641816D460146D3F884303C342846AC
:1041B000984795E8070084E8070005B030BD002265
:1041C000028042808280C280704780F8361070473B
:1041D000036870B504461B6B154698472368204654
:1041E00029465B6EBDE87040184700207047806C20
:1041F0007047704770477047704770477047704707
:1042000030B444680346C2689B68551004EB6200F2
:10421000D20748BF625930BC48BFD35818474368DB
:104220002BB183682BB9C06800F0010070471846B5
:104230007047012070470320704702299EBF00EBA2
:104240008100C2648365704702299ABF00EB810137
:10425000C86C0020704702299ABF163150F821001F
:104260000020704702299EBF00EB81004266036771
:10427000704702299ABF00EB8101486E0020704709
:1042800002299ABF1C3150F821000020704710B558
:1042900004464C212FF00BFA204610BD10B5044601
:1042A0007C212FF004FA204610BD10B504461021E1
:1042B0002FF0FDF9204610BD034B10B504460360F6
:1042C0001AF0B0FD204610BD00980508074B07B551
:1042D000036001901AF0A6FD019842F288512FF078
:1042E000E6F9019803B05DF804FB00BF00980508EB
:1042F00008B5FFF7E7F908BD00F50E73994270B5F0
:1043000004460D4602D10368DB6A984704F5E16371
:104310009D4203D1236820461B6B984704F5EA634E
:104320009D4205D1236820465B6BBDE8704018476D
:1043300070BD0000036870B55E6B0446114B8DB212
:104340001B682BB9104B6C21104A11484AF04AFEE9
:104350001049828D0988914203D80F4B6D210B4A79
:10436000F3E713F812200D4B1B6853F82200036883
:104370001B6B9847281A334601B22046BDE87040AF
:10438000184700BF485B0020189505085A95050896
:10439000959505084C5B0020DC950508505B0020D6
:1043A000036870B504461B6B154698472368204682
:1043B00029465B6BBDE87040184770B504461D4642
:1043C000BDF91060FFF7ECFF2368294620469B6B80
:1043D0009847236831462046DB6BBDE8704018479C
:1043E0000022C0E90122C0E90322C0E90522C0E998
:1043F00007224FF480728284014A0260704700BF36
:104400005C96050810B50446262200214CF034FFC6
:104410002046FFF7E5FF044B20462360FF2384F886
:1044200026300023A36210BD78C2050800224FF099
:10443000FF318260C0E90021704710B50446FFF7E4
:10444000F5FF204610BD000010B5044600212622CD
:104450004CF012FF2046FFF7C3FF094B4FF47F02D9
:1044600004F13C002360074BA3624FF6FF73A38562
:104470000023C4E90C322387FFF7D8FF204610BD84
:10448000E8C10508F890050810B50446FFF7DCFF01
:10449000024B204623600023A36410BDC496050888
:1044A0001A4B73B51B880646018F8B422BD9184BCC
:1044B0001B682BB9174B6C21174A18484AF092FD1C
:1044C00013F81120164B1B6853F82250154B18682F
:1044D00000F0D4FF2B68019028469B6B98472B680F
:1044E000044601999B6C2846984714FB00F42B68FE
:1044F0002846A4B201995B6A984723181BB2A6F814
:10450000463002B070BD0023F9E700BF4C5B0020CD
:10451000485B0020189505085A95050895950508EB
:10452000505B0020545B002010B5044617F08CFC53
:10453000084B204623600023C4E91333C4E9153334
:10454000C4E91733C4E91933C4E91B33C4E91D3383
:1045500010BD00BF5497050803682DE9F0411B6F9B
:1045600005460C46002698470746BE4204F108045B
:1045700004DB2846BDE8F04117F07EBC14ED017A5B
:10458000314654ED027A2846F0EE476A2B68B0EEC9
:10459000677A0136D3F87480FEEEED6ABEEEED7AEE
:1045A00016EE903A17EE102AC047DEE72DE9F04FDD
:1045B000044600254FF6FF7604F16C0904F19807D4
:1045C00004F50E7804F55A7A2DED108B9DB01EF08F
:1045D00079F8F04B22460DF1580BE56342F8403B69
:1045E000104609EE902AFFF70DFF59464846ADF8F0
:1045F000586018F057FB384619F036F9294626223C
:1046000040464CF039FE4046FFF7EAFE4FF001030A
:10461000A4F8666284F85C32DF4BA4F86862C4F8E0
:10462000383204F51C7384F86A621846A4F86C6288
:10463000C4F8605284F86452D84E0493FFF7E2FE47
:1046400004F52973C4F87062C4F89C521846A4F8A3
:10465000A0520593FFF7D6FE04F53673C4F8A462A2
:10466000C4F8D0521846A4F8D4520AEE103AFFF714
:10467000EBFE04F54873CA4E18460AEE903AFFF76F
:10468000E3FE5046FFF7E0FE04F56C7318460BEEB0
:10469000103AFFF7D9FE04F57E731846069317F01B
:1046A000F1FC04F5886318460893FFF789F906F1D1
:1046B000240304F25442C4F84064C4F84834104659
:1046C000C4F84C54079217F0DDFC04F29C421046EB
:1046D0000992FFF775F906F1240304F59662C4F810
:1046E0009C64C4F8A4341046C4F8A8540BEE902A75
:1046F000FFF7AAFE04F59F6210460DEE102AFFF7A1
:10470000C3FE04F2445210460DEE902AFFF7BCFEA1
:1047100004F5B26210460EEE102AFFF7B5FE04F261
:10472000DC5210460EEE902AFFF7AEFE04F5C5628D
:1047300010460FEE102AFFF7A7FE04F2746210462F
:104740000FEE902AFFF7A0FE04F5D862104609EE9E
:10475000102AFFF779FE04F5E16210460CEE102AEC
:1047600019F0AAFC04F5EA6210460CEE902A19F042
:10477000A3FC04F5F362104608EE102AFFF7D4FEFE
:1047800004F6140210460A92FFF71AF906F1240300
:1047900004F62802C4F81468C4F81C381046C4F89B
:1047A000205808EE902AFFF7BFFE04F6A402104638
:1047B0000B92FFF705F906F124037A4A4FF4E15111
:1047C000C4F8AC3804F50053C4F8A46804F65810D3
:1047D000C4F8B058261DC3F87825734AC3F87C4541
:1047E000C3F88025C3F884551AF012FB4FF4887380
:1047F0002A46294619EE900A00934FF4F073FFF70A
:10480000DCFD4FF07F4319EE901A3046A36614F09A
:10481000ABFD48465946ADF8585019F015FB4FF41A
:1048200088732A464846294600934FF4F073FFF7F1
:10483000C4FD4846294618F0EFF9494630460DF1C7
:10484000300914F091FD062338465946ADF858302A
:1048500014F01CFDF02338461922E2210093F223C4
:10486000FFF7ABFD78223846114619F0A8F8384614
:1048700070226FF0700119F027F92B466422384638
:104880002946009514F0AFFB3846294619F0C6F8C2
:10489000432307223846032119F07CF838460121CA
:1048A00019F01AF83846012119F019F83846642130
:1048B00018F0B1FF39463046052714F055FD404643
:1048C0002A462946FFF76CFD4FF004035A4640463E
:1048D000A4F86C3210A9ADF85830ADF8407019F05A
:1048E00007F94046012118F082F904F515534146B5
:1048F00030463833DFF8B480C4F86032039314F0E4
:1049000033FD5F2346229C2104980093BE23FFF7CA
:1049100054FD4FF07F4304993046A4F8A07284F808
:104920009652C4E9A63814F01FFD742347229D2136
:1049300005980093BE23FFF740FD4FF07F43059994
:104940003046A4F8D4724FF0640784F8CA52C4E920
:10495000B33814F009FD5D22AD211AEE100AFFF7FD
:104960001FFD4FF0FF3348461AEE101AC4F8083303
:10497000A4F80C5318F040FC04F54573DFF83080C0
:1049800099E8070083E80700132359461AEE100A36
:1049900010E000BF0098050800C10508C8C305085D
:1049A0002CBE0508E8970508F9420008363680FF56
:1049B000F8900508CDF85880ADF85C3018F0B6FED8
:1049C0001AEE101A304684F80E5314F0CDFC8522EE
:1049D000AD211AEE900AFFF7E3FC4FF0FF33484693
:1049E0001AEE901AC4F85033A4F8545318F004FC8B
:1049F00004F5577399E8070083E807001223594626
:104A00001AEE900ACDF85880ADF85C3018F08EFEA2
:104A10001AEE901A304684F8565314F0A5FCA922D9
:104A200050460321FFF7BCFC4FF07F4351464846F8
:104A3000C4F89833A4F89C5318F0DEFB04F56973AE
:104A400099E8070083E80700152350465946CDF83A
:104A50005880ADF85C3018F069FE5146304684F855
:104A60009E734FF0140A14F07FFCC52203211BEE45
:104A7000100AFFF795FC4FF07F4348461BEE101AD3
:104A8000C4F8E033A4F8E45318F0B6FB04F57B73E4
:104A900099E8070083E8070059461BEE100ACDF895
:104AA0005880ADF85CA018F041FE1BEE101A30469D
:104AB00084F8E6734FF4A06714F056FC50238D225F
:104AC0003A2106980093FFF778FC4FF4C07348F63C
:104AD00010420699C4F82C344FF43453A4F85024EF
:104AE0003046089AC4F83434444BC4F82474C4F8EB
:104AF0002874C4F84C34C4F82024C4F83854C4F8DA
:104B0000305414F031FC5023A9228A2107980093D5
:104B1000FFF753FC4FF4C071384B48F61042C4F80D
:104B200088144FF43451C4F8A8343046099BC4F8B3
:104B30008074C4F88474C4F89014A4F8AC24079961
:104B4000C4F87C34C4F89454C4F88C5414F00CFCAD
:104B500030235C229E211BEE900A0093C323284F32
:104B6000FFF72BFC4FF0FF3348461BEE901AC4F8BA
:104B7000E034A4F8E45418F03FFB04F2EC4399E865
:104B8000070083E80700112359461BEE900ACDF871
:104B90005880ADF85C3018F0C9FD1BEE901A304615
:104BA00084F8E65404F6B80914F0DEFB32236822D8
:104BB00029461DEE100A0093CF23FFF7FEFB4FF0AE
:104BC0007F435846A4F82C55C4F82835FFF72EFC2F
:104BD00004F234539BE8070083E807003B682BB9D5
:104BE000084B6021084A09484AF0FCF9084B1B8829
:104BF0000F2B11D8074B6121034AF4E782828FFF04
:104C0000485B0020189505081A9605089595050833
:104C10004C5B0020DC950508E44B0F21186800F080
:104C20002DFCE34A0346514648461FF009FA10237B
:104C300059461DEE100AC4F8409504F50E69ADF80A
:104C40005C30CDF8588018F071FD4FF064021DEE15
:104C5000101A304684F82E2514F086FB64223A217F
:104C60004FF4CD731DEE900A00925122FFF7A5FB81
:104C7000D04B5846A4F87855C4F87435FFF7D6FBE6
:104C800004F5B0639BE8070083E807003B68002B4E
:104C9000A6D0C94A1388032BACD9C44B032118688A
:104CA00000F0ECFBC24A03465146484604F6081A97
:104CB0001FF0C6F94FF004011DEE900AC4F88C9560
:104CC000ADF85C105946CDF8588018F02FFD1DEE58
:104CD000901A304684F869554FF0180914F044FBD7
:104CE0008A232A461EEE100A1946CDF80090FFF7D7
:104CF00064FB4FF07F415846A4F8C455C4F8C01572
:104D0000FFF794FB04F2CC539BE8070083E807000D
:104D10003B68002B3FF464AFA74A13880D2B7FF646
:104D200069AFA24B0D21186800F0A8FBA04A03460A
:104D30000A2150461FF084F90E2359461EEE100A30
:104D4000C4F8D8A504F61C1AADF85C30CDF858802C
:104D500018F0ECFC1EEE101A304614F005FB8A2306
:104D60002A46FF211EEE900ACDF80090FFF725FBA2
:104D70004FF07F415846A4F81056C4F80C16FFF7C0
:104D800055FB04F5C3639BE8070083E807003B6815
:104D9000002B3FF425AF884A1388092B7FF62AAFF2
:104DA000824B0921186800F069FB814A03460A21F9
:104DB00050461FF045F90A2359461EEE900AC4F8E2
:104DC00024A6ADF85C30CDF8588018F0AFFC1EEE8C
:104DD000901A304614F0C8FA2A46C4218A231FEEDE
:104DE000100ACDF80090FFF7E8FA4FF07F43A4F8DF
:104DF0005C565846C4F8583604F51365FFF716FBA1
:104E000004F264639BE8070083E807003B68002B1B
:104E10003FF4E6AE684A13880B2B7FF6EBAEDFF863
:104E20008CB10B21654F4FF00008DBF8000004F651
:104E3000441A00F023FB5E4A03460A2128461FF06D
:104E4000FFF8C4F8705616AD0C231FEE100A169723
:104E50002946ADF85C3018F069FC1FEE101A304698
:104E600014F082FACDF800904FF07F498A23002297
:104E70004FF4A7711FEE900AFFF79FFA2846C4F877
:104E8000A496A4F8A886FFF7D1FA04F5D66395E8AE
:104E9000070083E807004A4B1B68002B3FF4A0AED5
:104EA000454B1B88072B7FF6A5AE0721DBF80000DA
:104EB00000F0E4FA3E4A03460A2150461FF0C0F8CB
:104EC000082329461FEE900AC4F8BCA6ADF85C3052
:104ED000169718F02BFC1FEE901A304614F044FA87
:104EE0004722414619EE100AFFF75AFAA4F8F48651
:104EF0000DF1300819EE101AC4F8F0964FF00109C0
:104F0000404618F079F919EE103A98E807003C335A
:104F100016974FF002084FF0FF3783E8070006238B
:104F2000294619EE100AADF85C3018F0FFFB642337
:104F300019EE101A304684F8F63614F015FAE52208
:104F400003211CEE100AFFF72BFA2A4610A91CEECB
:104F5000100AADF84090ADF8588018F0C9FD05234F
:104F60001CEE100AA4F84037FFF79AFA039B1CEED8
:104F7000101A3046C4F83037C4F84477C4F848777C
:104F800014F0F2F9E5226E211CEE900AFFF708FA00
:104F90002A4610A91CEE900AADF84090ADF8588052
:104FA00018F0A6FD1CEE900A0CE000BF545B002038
:104FB00028B1050800F2E2FF4C5B0020F8900508DC
:104FC000485B0020A4F88887FFF76AFA039B1CEE71
:104FD000901A3046C4F87837C4F88C77C4F89077C4
:104FE00014F0C2F944231B228A21009318EE100A00
:104FF0005423FFF7E2F9D4F8C83713B9D4F8CC3703
:1050000043B1002318EE100AC4F8C837C4F8CC37EF
:1050100016F032FF4FF4806318EE100AC4F8D4374C
:10502000C4F8D83716F028FFD4F8D03733B10023AE
:1050300018EE100AC4F8D03716F01EFF4DF20473B4
:10504000DFF8E0C010AD354FA4F824380A9BC4F84F
:105050002078C4F8C037BCE80F000FC59CE80300F7
:1050600085E80300002510A918EE100AFFF774FA6E
:1050700018EE101A304684F8BD5714F075F9502315
:105080000A228A21009318EE900AFFF796F9D4F8C5
:10509000583813B9D4F85C383BB118EE900AC4F80C
:1050A0005858C4F85C5816F0E7FE4FF4806318EEC9
:1050B000900AC4F86438C4F8683816F0DDFED4F8F5
:1050C000603833B1002318EE900AC4F8603816F047
:1050D000D3FE4DF20473C4F8B078114F16ADA4F8A6
:1050E000B4380B9BC4F850380FCF0FC597E80300B6
:1050F00085E8030016A918EE900AFFF72DFA0023A1
:10510000304618EE901A84F84D3814F02DF92046E8
:105110001DB0BDEC108BBDE8F08F00BF22E0D4FFC6
:10512000A0750508887505087047000030B5174D53
:105130008FB02C68BFF35B8F14F0010422D1284696
:105140002EF0B7FAF0B13F23322211490993114BE7
:1051500011480893114B0A94079301230194049377
:10516000CDE905430423CDE902430A23CDE90B44ED
:1051700000930C23FEF7CAFF094849F051FF284667
:105180002EF0A3FA04480FB030BD00BFD04B002072
:105190004C680A9058160608D44B00200C1D0608CF
:1051A000295100087047000030B5174D8FB02C68AA
:1051B000BFF35B8F14F0010422D128462EF079FA58
:1051C000F0B13F23442211490993114B1148089330
:1051D000114B0A940793012301940493CDE90533FD
:1051E0000423CDE902431423CDE90B440093182393
:1051F000FEF78CFF094849F013FF28462EF065FAA8
:1052000004480FB030BD00BF004C0020086B0A906E
:105210006C160608044C0020101D0608A551000855
:105220007047000030B5174D8FB02C68BFF35B8F0F
:1052300014F0010423D128462EF03BFAF8B13F23A5
:10524000012211490993114B11480893114B0A94FB
:1052500007930223CDE905330423CDE90332282344
:10526000412200933023CDE90B44CDE90144FEF700
:105270004DFF094849F0D4FE28462EF026FA04488E
:105280000FB030BD304C0020C06E0A908C1706085D
:10529000344C0020141D06082152000870470000FD
:1052A00030B5174D8FB02C68BFF35B8F14F001043D
:1052B00023D128462EF0FDF9F8B13F2301221149F0
:1052C0000993114B11480893114B0A940793032338
:1052D000CDE905330423CDE9033250234122009365
:1052E0006023CDE90B44CDE90144FEF70FFF0948E7
:1052F00049F096FE28462EF0E8F904480FB030BD7C
:10530000604C002050720A90DC190608644C0020A2
:10531000181D06089D5200080020704700207047A5
:105320000EB403B503AB002153F8042B01931CF01A
:1053300025FA02B05DF804EB03B070470CB407B572
:1053400004AB53F8042B01931CF018FA03B05DF87A
:1053500004EB02B070470000436C10B5044673B311
:10536000038F2BB9184BC521184A194849F03AFE4A
:10537000C38E00EB43035B8C0BB31EF0ADF8238FA1
:10538000012B03D8134BCB21134AEEE7E28E40F6F4
:105390003F10531C9BB2092B194688BFA3F10A0189
:1053A00004EB4101498C814209D10A2B04EB4202F2
:1053B00028BF0023508C04EB4303588451842046BB
:1053C000BDE810401DF08ABF3898050841980508CF
:1053D000EC98050836990508449905081DF047BF63
:1053E00010B586B002AC84E806001A460AAB214626
:1053F00005930193099B0093089B1AF0A9FD06B041
:1054000010BD000038B518BB124B13481C68134977
:10541000B4B1226822440260626822440A60A26831
:1054200014440F4B00221A8000F038F8054600F0B3
:1054300033F80C4B1C600C4B1D600C4B188007E0C4
:105440000B4B03600B4B0B600B4B1C68002CE8D123
:1054500038BD00BF904C0020944C0020984C002098
:105460009C4C0020485B0020505B00204C5B0020DF
:1054700038760A90E0750A9074780A90044B1B689D
:1054800053F82100034B1B6803EB4000704700BF3B
:10549000984C0020944C002016207047004870471C
:1054A000A04C002010B5074CFFF77EFE2060FFF7F0
:1054B000B9FE6060FFF73AFEA060FFF7F1FEE06022
:1054C00010BD00BFA04C002010B5002404600C608B
:1054D00014601C6010BD704710B504464FF4AE71E7
:1054E0002EF0E5F8204610BD10B50446D0F858015E
:1054F00000F036F82046BDE810401BF043BA00002B
:1055000010B50446FEF784FD014B2046236010BD14
:10551000209A0508002202607047000000236421E1
:1055200070B41A460D4C1D462668013904F10C046E
:10553000354454F8086C324454F8046C3344F3D1C5
:10554000006864210468A468B3FBF1F3B2FBF1F2D4
:10555000A446B5FBF1F170BC604700BF18070020FE
:10556000074B10B50446186840B1002104F02CFB2D
:1055700020B92046BDE81040FFF7D0BF10BD00BFE6
:10558000C80300207047043870477047C06810B4E3
:105590000468A46BA4465DF8044B6047A0F10400C6
:1055A000FFF7F4BF10B5044610212EF080F8204616
:1055B00010BDA0F10400F5E70022C1608260044A3A
:1055C00010B502F1080424320460426010BD00BF2F
:1055D0006C9A050801482EF0B9B800BFB04C002005
:1055E00001482EF0E7B900BFB04C0020704700F52D
:1055F000005090F8DD3583F0010380F8DD35704709
:10560000034B10B504460360FEF756FE204610BD5E
:10561000649B050810B50446FFF7F2FF42F22061D3
:1056200020462EF044F8204610BD000008B5054B7A
:105630001B682BB9044B9021044A054849F0D2FC61
:10564000008808BD805B00209C9A0508D89A050850
:105650000B9B050810B50446FEF7A8FF094B002078
:1056600000210422236004F51653C3E9020104F566
:1056700000532046C3F8D82540F20112A3F8DC25D8
:1056800010BD00BF649B050801482EF05FB800BF45
:10569000B14C002001482EF08DB900BFB14C002064
:1056A000FEF7AABD2DE9F84F00F516550446002275
:1056B0000023103555E902AB2DED028B50465946BB
:1056C000B0EE408AF0EE608AFBF72EFA80460028A2
:1056D0003ED1B0EE480AF0EE680A04F5175947F0DB
:1056E000D3FA47F041FC10EE106A53EC102B23F074
:1056F00000474BEC10ABC9E9026747F0C5FA47F029
:1057000033FC10EE102A51EC100B21F00043304610
:105710003946C9E90423FAF7E7FD21F000470022E2
:105720000E4B3946FBF728FA90B1FF2304F596603B
:1057300084F8E634882384F896321CF04AF904F59C
:105740001C701CF046F9064B84F85C8283F80080DC
:1057500005ED028BBDEC028BBDE8F88F0000044024
:10576000F4060020034698302DE9F04103F5005679
:1057700003F59F6803F24457012496F8DC259AB19B
:10578000002583F8694583F8BD502C4683F81D55E4
:105790001CF01FF940461CF01CF938461CF019F9A2
:1057A00086F8DC45BDE8F08183F8BD4083F81D45EF
:1057B00083F869251CF00DF940461CF00AF93846BB
:1057C0001CF007F9ECE700002DE9F04F044608460D
:1057D00090461E4604F5165704F5175504F6081BA7
:1057E00004F61C1A303704F644192DED028B87B0ED
:1057F000FAF7B8FE88A3D3E90023FAF72DFF0022B9
:105800008D4BFAF729FFCDE90201C7E900014046B7
:1058100004F51368FAF7A6FE7FA3D3E90023FAF78D
:105820001BFF0022844BFAF717FF45E902013046BF
:1058300004F6B806FAF796FE77A3D3E90023FAF741
:105840000BFF7D4B0022FAF707FF1422C5E9000188
:1058500000213046C4F80819C4F80C19A4F810192E
:10586000C4F81C19C4F82019A4F82419C4F8441960
:10587000C4F84819A4F84C194BF0FEFC002104F5BB
:105880000E631422C4F830191846C4F83419A4F869
:10589000381908EE103A4BF0EFFCDDE90201FBF796
:1058A000D3F905AB654A0A21059058461EF0C6FD9E
:1058B00004F5B2601CF08DF804F5005B55E90201B7
:1058C000FBF7C2F905AB5D4A0A21059050461EF070
:1058D000B5FD04F2DC501CF07CF804F5886AD5E9CB
:1058E0000001FBF7B1F905AB544A0A21059048467F
:1058F0001EF0A4FD04F274601CF06BF848A3D3E919
:105900000023D7E90001FAF7D1FFFBF79DF905ABBA
:105910004A4A0A21059040461EF090FD04F5C560F4
:105920001CF057F80BF21C683FA3D3E90023D7E91A
:105930000001FAF791FEFBF787F9414BC8F8000028
:1059400055E90201D5E90089C3E900013D4BC3E9EE
:10595000008937A3D3E9002304F55A7904F57E784A
:10596000FBF70AF900283CD0374BC4F820A4C4F850
:105970004C3444F64063A4F85034FF23484684F87E
:105980009E331CF026F8404617F0C4F804F29C4AF7
:1059900004F2544904F56C7825A3D3E90023D5E932
:1059A0000001FBF7E9F838B3274B4846C4F87CA45C
:1059B000C4F8A83444F64063A4F8AC3417F0AAF84D
:1059C000FF2384F8E63340461CF003F81F4B1B68A6
:1059D000032B00F2B280DFE813F03D00D700FA009D
:1059E00004011B4BC4F820A4C4F84C344AF68613B7
:1059F000A4F850346423C1E7154B4846C4F87CA48E
:105A0000C4F8A8344AF68613A4F8AC3417F082F828
:105A10006423D6E7AFF300806666666666660A4072
:105A200060764F1E166AD53F000000C0CC4C3E4049
:105A3000CDCCCCCCCCCCFC3F0000303F4F9B0508FC
:105A4000000700200807002003CB4FFF14070020A9
:105A50003131ADFF00227A4B04F51655D7E900012C
:105A6000FAF7FAFD41EC100B47F0FEFA0022744BF6
:105A700051EC100BFAF71AFF02460B46C5E9082352
:105A800067A3D3E9002304F51755FAF70FFF66A3C0
:105A9000D3E90023FAF728FC1E3565A3D3E90023D8
:105AA000FAF704FF9FED640B41EC110B47F02AF964
:105AB000644A3221284607ED020B8DED000B4AF0B7
:105AC000FFFF04F517531422294632331846029378
:105AD0001DF04BFF0022029B84F8CA2284F80E239B
